{
  "_format": "hh-sol-artifact-1",
  "contractName": "Assessment",
  "sourceName": "contracts/Assessment.sol",
  "abi": [
    {
      "inputs": [
        {
          "internalType": "uint256",
          "name": "initBalance",
          "type": "uint256"
        }
      ],
      "stateMutability": "payable",
      "type": "constructor"
    },
    {
      "inputs": [
        {
          "internalType": "uint256",
          "name": "balance",
          "type": "uint256"
        },
        {
          "internalType": "uint256",
          "name": "withdrawAmount",
          "type": "uint256"
        }
      ],
      "name": "InsufficientBalance",
      "type": "error"
    },
    {
      "anonymous": false,
      "inputs": [
        {
          "indexed": false,
          "internalType": "uint256",
          "name": "amount",
          "type": "uint256"
        }
      ],
      "name": "Deposit",
      "type": "event"
    },
    {
      "anonymous": false,
      "inputs": [
        {
          "indexed": false,
          "internalType": "uint256",
          "name": "amount",
          "type": "uint256"
        }
      ],
      "name": "Withdraw",
      "type": "event"
    },
    {
      "anonymous": false,
      "inputs": [
        {
          "indexed": false,
          "internalType": "uint256",
          "name": "amount",
          "type": "uint256"
        }
      ],
      "name": "WithdrawAll",
      "type": "event"
    },
    {
      "inputs": [],
      "name": "balance",
      "outputs": [
        {
          "internalType": "uint256",
          "name": "",
          "type": "uint256"
        }
      ],
      "stateMutability": "view",
      "type": "function"
    },
    {
      "inputs": [
        {
          "internalType": "uint256",
          "name": "_amount",
          "type": "uint256"
        }
      ],
      "name": "deposit",
      "outputs": [],
      "stateMutability": "payable",
      "type": "function"
    },
    {
      "inputs": [],
      "name": "getBalance",
      "outputs": [
        {
          "internalType": "uint256",
          "name": "",
          "type": "uint256"
        }
      ],
      "stateMutability": "view",
      "type": "function"
    },
    {
      "inputs": [],
      "name": "owner",
      "outputs": [
        {
          "internalType": "address payable",
          "name": "",
          "type": "address"
        }
      ],
      "stateMutability": "view",
      "type": "function"
    },
    {
      "inputs": [
        {
          "internalType": "uint256",
          "name": "_withdrawAmount",
          "type": "uint256"
        }
      ],
      "name": "withdraw",
      "outputs": [],
      "stateMutability": "nonpayable",
      "type": "function"
    },
    {
      "inputs": [
        {
          "internalType": "uint256",
          "name": "_Burnamount",
          "type": "uint256"
        }
      ],
      "name": "withdrawAll",
      "outputs": [],
      "stateMutability": "nonpayable",
      "type": "function"
    }
  ],
  "bytecode": "0x608060405260405161088e38038061088e833981810160405281019061002591906100ad565b336000806101000a81548173ffffffffffffffffffffffffffffffffffffffff021916908373ffffffffffffffffffffffffffffffffffffffff16021790555080600181905550506100da565b600080fd5b6000819050919050565b61008a81610077565b811461009557600080fd5b50565b6000815190506100a781610081565b92915050565b6000602082840312156100c3576100c2610072565b5b60006100d184828501610098565b91505092915050565b6107a5806100e96000396000f3fe6080604052600436106100555760003560e01c806312065fe01461005a5780632e1a7d4d146100855780638da5cb5b146100ae578063958e2d31146100d9578063b69ef8a814610102578063b6b55f251461012d575b600080fd5b34801561006657600080fd5b5061006f610149565b60405161007c9190610508565b60405180910390f35b34801561009157600080fd5b506100ac60048036038101906100a79190610554565b610153565b005b3480156100ba57600080fd5b506100c36102a4565b6040516100d091906105c2565b60405180910390f35b3480156100e557600080fd5b5061010060048036038101906100fb9190610554565b6102c8565b005b34801561010e57600080fd5b506101176103e3565b6040516101249190610508565b60405180910390f35b61014760048036038101906101429190610554565b6103e9565b005b6000600154905090565b60008054906101000a900473ffffffffffffffffffffffffffffffffffffffff1673ffffffffffffffffffffffffffffffffffffffff163373ffffffffffffffffffffffffffffffffffffffff16146101e1576040517f08c379a00000000000000000000000000000000000000000000000000000000081526004016101d890610660565b60405180910390fd5b6000600154905081600154101561023357600154826040517fcf47918100000000000000000000000000000000000000000000000000000000815260040161022a929190610680565b60405180910390fd5b816001600082825461024591906106d8565b92505081905550818161025891906106d8565b600154146102695761026861070c565b5b7f5b6b431d4476a211bb7d41c20d1aab9ae2321deee0d20be3d9fc9b1093fa6e3d826040516102989190610508565b60405180910390a15050565b60008054906101000a900473ffffffffffffffffffffffffffffffffffffffff1681565b60008054906101000a900473ffffffffffffffffffffffffffffffffffffffff1673ffffffffffffffffffffffffffffffffffffffff163373ffffffffffffffffffffffffffffffffffffffff1614610356576040517f08c379a000000000000000000000000000000000000000000000000000000000815260040161034d90610660565b60405180910390fd5b5b600060015411156103cd5760008190506001548111156103775760015490505b806001600082825461038991906106d8565b925050819055507f3d5a341dc6a12221fcf31279cef3771f8fad757b2d9261f97605ccc17c257424816040516103bf9190610508565b60405180910390a150610357565b6000600154146103e0576103df61070c565b5b50565b60015481565b6000600154905060008054906101000a900473ffffffffffffffffffffffffffffffffffffffff1673ffffffffffffffffffffffffffffffffffffffff163373ffffffffffffffffffffffffffffffffffffffff161461047e576040517f08c379a000000000000000000000000000000000000000000000000000000000815260040161047590610660565b60405180910390fd5b8160016000828254610490919061073b565b9250508190555081816104a3919061073b565b600154146104b4576104b361070c565b5b7f4d6ce1e535dbade1c23defba91e23b8f791ce5edc0cc320257a2b364e4e38426826040516104e39190610508565b60405180910390a15050565b6000819050919050565b610502816104ef565b82525050565b600060208201905061051d60008301846104f9565b92915050565b600080fd5b610531816104ef565b811461053c57600080fd5b50565b60008135905061054e81610528565b92915050565b60006020828403121561056a57610569610523565b5b60006105788482850161053f565b91505092915050565b600073ffffffffffffffffffffffffffffffffffffffff82169050919050565b60006105ac82610581565b9050919050565b6105bc816105a1565b82525050565b60006020820190506105d760008301846105b3565b92915050565b600082825260208201905092915050565b7f596f7520617265206e6f7420746865206f776e6572206f66207468697320616360008201527f636f756e74000000000000000000000000000000000000000000000000000000602082015250565b600061064a6025836105dd565b9150610655826105ee565b604082019050919050565b600060208201905081810360008301526106798161063d565b9050919050565b600060408201905061069560008301856104f9565b6106a260208301846104f9565b9392505050565b7f4e487b7100000000000000000000000000000000000000000000000000000000600052601160045260246000fd5b60006106e3826104ef565b91506106ee836104ef565b9250828203905081811115610706576107056106a9565b5b92915050565b7f4e487b7100000000000000000000000000000000000000000000000000000000600052600160045260246000fd5b6000610746826104ef565b9150610751836104ef565b9250828201905080821115610769576107686106a9565b5b9291505056fea264697066735822122076020c8a175ff3557134e2f26a50fe5f9a26b340312d412ec5a09703f90ea5ee64736f6c63430008110033",
  "linkReferences": {},
  "deployedLinkReferences": {}
}